:020000040000FA
:10000000012807309F0083161F3085008601D730F6
:1000100081008312A201A301AA308600051C1528C5
:10002000A9308600043038202B20851C1C28A630DF
:100030008600033038202B20051D23289A308600A7
:10004000043038202B20851D0E286A3086000330AE
:1000500038202B200E28231C0800AA3086000230EE
:10006000A0004220A00B3128A3010C30A200080000
:10007000A0004220A208031D3F28051A2314A00B4C
:1000800039280800A20803194628A2030F30A1004E
:0E0090000B1181010B1D4A28A10B4828080006
:02009E0000342C
:0200A00000342A
:02400E00303F41
:00000001FF
