:020000040000FA
:100000000C2882073F3406345B344F3466346D3439
:100010007D3407347F346F3407309F008316031319
:100020000330850086018312031385018601A00138
:10003000A201A1018030A6004B20051C29286430B4
:10004000200203192528A00A3E204B200518252848
:100050003328851C3328A00803193028A0033E202C
:100060004B208518302864302002031D3A280517DC
:10007000A6011C2805138030A6001C282008A30018
:10008000A2010A302302031C4828A300A20A412827
:100090002308A100080064302002031D60283F30BF
:1000A000260486000515851173203F30260486003E
:1000B0008515051173200511851126088600080095
:1000C00021080120260486000515851173202208C9
:1000D0000120260486008515051173200511851160
:1000E000260886000800FA30A5000A30A400A40BF8
:0800F0007728A50B7528080014
:0400F800003400349C
:02400E00703F01
:00000001FF
