:020000040000FA
:10000000012807309F0083160313FF308500860107
:100010008312031385018601A001A101A201A3019E
:10002000051C1728A00A3E20051814281028851C36
:100030001028A008031910280330A3008600231CF1
:100040002E28051D2E28A10A3E2005192528200846
:100050002102031D2E28231023088600A31C3D28FF
:10006000851D3D28A20A3E20851934282008220239
:10007000031D3D28A310230886001F28FF30A4007D
:0E0080006430A500A50B4228A40B4028080000
:02008E0000343C
:0200900000343A
:02400E00303F41
:00000001FF
